{
  "contractName": "TokenBalanceFetcher",
  "abi": [
    {
      "inputs": [
        {
          "internalType": "address",
          "name": "owner",
          "type": "address"
        },
        {
          "internalType": "address[]",
          "name": "tokenAddresses",
          "type": "address[]"
        }
      ],
      "name": "getBalances",
      "outputs": [
        {
          "internalType": "uint256[]",
          "name": "",
          "type": "uint256[]"
        }
      ],
      "stateMutability": "view",
      "type": "function"
    }
  ],
  "bytecode": "0x608060405234801561001057600080fd5b50610586806100206000396000f3fe608060405234801561001057600080fd5b506004361061002b5760003560e01c80636a385ae914610030575b600080fd5b61004a60048036038101906100459190610358565b610060565b604051610057919061047c565b60405180910390f35b6060600080835167ffffffffffffffff8111156100805761007f610215565b5b6040519080825280602002602001820160405280156100ae5781602001602082028036833780820191505090505b5090505b83518260ff161015610182576000848360ff16815181106100d6576100d561049e565b5b602002602001015190508073ffffffffffffffffffffffffffffffffffffffff166370a08231876040518263ffffffff1660e01b815260040161011991906104dc565b602060405180830381865afa158015610136573d6000803e3d6000fd5b505050506040513d601f19601f8201168201806040525081019061015a9190610523565b828460ff16815181106101705761016f61049e565b5b602002602001018181525050506100b2565b809250505092915050565b6000604051905090565b600080fd5b600080fd5b600073ffffffffffffffffffffffffffffffffffffffff82169050919050565b60006101cc826101a1565b9050919050565b6101dc816101c1565b81146101e757600080fd5b50565b6000813590506101f9816101d3565b92915050565b600080fd5b6000601f19601f8301169050919050565b7f4e487b7100000000000000000000000000000000000000000000000000000000600052604160045260246000fd5b61024d82610204565b810181811067ffffffffffffffff8211171561026c5761026b610215565b5b80604052505050565b600061027f61018d565b905061028b8282610244565b919050565b600067ffffffffffffffff8211156102ab576102aa610215565b5b602082029050602081019050919050565b600080fd5b60006102d46102cf84610290565b610275565b905080838252602082019050602084028301858111156102f7576102f66102bc565b5b835b81811015610320578061030c88826101ea565b8452602084019350506020810190506102f9565b5050509392505050565b600082601f83011261033f5761033e6101ff565b5b813561034f8482602086016102c1565b91505092915050565b6000806040838503121561036f5761036e610197565b5b600061037d858286016101ea565b925050602083013567ffffffffffffffff81111561039e5761039d61019c565b5b6103aa8582860161032a565b9150509250929050565b600081519050919050565b600082825260208201905092915050565b6000819050602082019050919050565b6000819050919050565b6103f3816103e0565b82525050565b600061040583836103ea565b60208301905092915050565b6000602082019050919050565b6000610429826103b4565b61043381856103bf565b935061043e836103d0565b8060005b8381101561046f57815161045688826103f9565b975061046183610411565b925050600181019050610442565b5085935050505092915050565b60006020820190508181036000830152610496818461041e565b905092915050565b7f4e487b7100000000000000000000000000000000000000000000000000000000600052603260045260246000fd5b6104d6816101c1565b82525050565b60006020820190506104f160008301846104cd565b92915050565b610500816103e0565b811461050b57600080fd5b50565b60008151905061051d816104f7565b92915050565b60006020828403121561053957610538610197565b5b60006105478482850161050e565b9150509291505056fea26469706673582212200d870fe310fe5332da1b3aefd42b09aa5ed83e855e8993e98232d3f4f180e7d764736f6c63430008100033",
  "immutableReferences": {},
  "source": "// SPDX-License-Identifier: MIT\r\npragma solidity ^0.8.0;\r\n\r\nimport \"../node_modules/@openzeppelin/contracts/token/ERC20/ERC20.sol\";\r\n\r\ncontract TokenBalanceFetcher {\r\n\r\n    function getBalances(address owner, address[] memory tokenAddresses) external view returns (uint256[] memory) {\r\n        uint8 i = 0;\r\n        uint256[] memory balances = new uint256[](tokenAddresses.length);\r\n\r\n\r\n        while(i < tokenAddresses.length) {\r\n            ERC20 tokenContract = ERC20(tokenAddresses[i]);\r\n            balances[i] = tokenContract.balanceOf(owner);\r\n        }\r\n        \r\n        \r\n        return balances;\r\n    }\r\n\r\n}",
  "sourcePath": "C:\\selfpract\\switcheo-code-challenge\\code-challenge\\src\\problem5\\contracts\\Utility.sol",
  "compiler": {
    "name": "solc",
    "version": "0.8.16+commit.07a7930e.Emscripten.clang"
  },
  "schemaVersion": "3.4.9",
  "updatedAt": "2022-09-02T16:44:01.186Z",
  "devdoc": {
    "kind": "dev",
    "methods": {},
    "version": 1
  },
  "userdoc": {
    "kind": "user",
    "methods": {},
    "version": 1
  }
}